{
  "_format": "hh-sol-artifact-1",
  "contractName": "Renting",
  "sourceName": "contracts/Renting.sol",
  "abi": [
    {
      "inputs": [],
      "stateMutability": "nonpayable",
      "type": "constructor"
    },
    {
      "anonymous": false,
      "inputs": [
        {
          "indexed": true,
          "internalType": "address",
          "name": "owner",
          "type": "address"
        },
        {
          "indexed": true,
          "internalType": "address",
          "name": "hirer",
          "type": "address"
        },
        {
          "indexed": true,
          "internalType": "bytes32",
          "name": "id",
          "type": "bytes32"
        }
      ],
      "name": "AgreementBroken",
      "type": "event"
    },
    {
      "anonymous": false,
      "inputs": [
        {
          "indexed": true,
          "internalType": "address",
          "name": "requestedBy",
          "type": "address"
        },
        {
          "indexed": true,
          "internalType": "bytes32",
          "name": "propertyId",
          "type": "bytes32"
        }
      ],
      "name": "BreakRequested",
      "type": "event"
    },
    {
      "anonymous": false,
      "inputs": [
        {
          "indexed": true,
          "internalType": "address",
          "name": "from",
          "type": "address"
        },
        {
          "indexed": true,
          "internalType": "address",
          "name": "to",
          "type": "address"
        },
        {
          "indexed": false,
          "internalType": "string",
          "name": "problem",
          "type": "string"
        }
      ],
      "name": "CreateComplaint",
      "type": "event"
    },
    {
      "anonymous": false,
      "inputs": [
        {
          "indexed": true,
          "internalType": "address",
          "name": "owner",
          "type": "address"
        },
        {
          "indexed": true,
          "internalType": "bytes32",
          "name": "id",
          "type": "bytes32"
        }
      ],
      "name": "PropertyCreated",
      "type": "event"
    },
    {
      "anonymous": false,
      "inputs": [
        {
          "indexed": true,
          "internalType": "bytes32",
          "name": "id",
          "type": "bytes32"
        }
      ],
      "name": "PropertyDeleted",
      "type": "event"
    },
    {
      "anonymous": false,
      "inputs": [
        {
          "indexed": true,
          "internalType": "address",
          "name": "hirer",
          "type": "address"
        },
        {
          "indexed": true,
          "internalType": "bytes32",
          "name": "id",
          "type": "bytes32"
        }
      ],
      "name": "PropertyRented",
      "type": "event"
    },
    {
      "anonymous": false,
      "inputs": [
        {
          "indexed": true,
          "internalType": "address",
          "name": "from",
          "type": "address"
        },
        {
          "indexed": true,
          "internalType": "bytes32",
          "name": "id",
          "type": "bytes32"
        }
      ],
      "name": "RentRequestSent",
      "type": "event"
    },
    {
      "anonymous": false,
      "inputs": [
        {
          "indexed": true,
          "internalType": "address",
          "name": "adres",
          "type": "address"
        }
      ],
      "name": "UserMarked",
      "type": "event"
    },
    {
      "inputs": [
        {
          "internalType": "bytes32",
          "name": "_id",
          "type": "bytes32"
        }
      ],
      "name": "breakAgreement",
      "outputs": [],
      "stateMutability": "nonpayable",
      "type": "function"
    },
    {
      "inputs": [
        {
          "internalType": "bytes32",
          "name": "_id",
          "type": "bytes32"
        },
        {
          "internalType": "address",
          "name": "guilty",
          "type": "address"
        }
      ],
      "name": "breakAndAddToBlackList",
      "outputs": [],
      "stateMutability": "nonpayable",
      "type": "function"
    },
    {
      "inputs": [
        {
          "internalType": "bytes32",
          "name": "_id",
          "type": "bytes32"
        }
      ],
      "name": "createBreakRequest",
      "outputs": [],
      "stateMutability": "nonpayable",
      "type": "function"
    },
    {
      "inputs": [
        {
          "internalType": "bytes32",
          "name": "_id",
          "type": "bytes32"
        },
        {
          "internalType": "string",
          "name": "_reason",
          "type": "string"
        }
      ],
      "name": "createComplaintForHirer",
      "outputs": [],
      "stateMutability": "nonpayable",
      "type": "function"
    },
    {
      "inputs": [
        {
          "internalType": "bytes32",
          "name": "_id",
          "type": "bytes32"
        },
        {
          "internalType": "string",
          "name": "_reason",
          "type": "string"
        }
      ],
      "name": "createComplaintForOwner",
      "outputs": [],
      "stateMutability": "nonpayable",
      "type": "function"
    },
    {
      "inputs": [
        {
          "internalType": "string",
          "name": "_name",
          "type": "string"
        },
        {
          "internalType": "string",
          "name": "_sort",
          "type": "string"
        },
        {
          "internalType": "string",
          "name": "_adres",
          "type": "string"
        },
        {
          "internalType": "uint256",
          "name": "_price",
          "type": "uint256"
        }
      ],
      "name": "createProperty",
      "outputs": [],
      "stateMutability": "nonpayable",
      "type": "function"
    },
    {
      "inputs": [
        {
          "internalType": "bytes32",
          "name": "_id",
          "type": "bytes32"
        }
      ],
      "name": "deleteProperty",
      "outputs": [],
      "stateMutability": "nonpayable",
      "type": "function"
    },
    {
      "inputs": [
        {
          "internalType": "bytes32",
          "name": "_id",
          "type": "bytes32"
        }
      ],
      "name": "getAgreementComplaint",
      "outputs": [
        {
          "components": [
            {
              "internalType": "address",
              "name": "from",
              "type": "address"
            },
            {
              "internalType": "address",
              "name": "to",
              "type": "address"
            },
            {
              "internalType": "string",
              "name": "reason",
              "type": "string"
            }
          ],
          "internalType": "struct Renting.Complaint",
          "name": "",
          "type": "tuple"
        }
      ],
      "stateMutability": "view",
      "type": "function"
    },
    {
      "inputs": [],
      "name": "getProperties",
      "outputs": [
        {
          "internalType": "bytes32[]",
          "name": "",
          "type": "bytes32[]"
        }
      ],
      "stateMutability": "view",
      "type": "function"
    },
    {
      "inputs": [
        {
          "internalType": "bytes32",
          "name": "_id",
          "type": "bytes32"
        }
      ],
      "name": "getPropertyInfo",
      "outputs": [
        {
          "components": [
            {
              "internalType": "address",
              "name": "owner",
              "type": "address"
            },
            {
              "internalType": "address",
              "name": "hirer",
              "type": "address"
            },
            {
              "internalType": "bool",
              "name": "available",
              "type": "bool"
            },
            {
              "internalType": "bytes32",
              "name": "id",
              "type": "bytes32"
            },
            {
              "internalType": "string",
              "name": "adres",
              "type": "string"
            },
            {
              "internalType": "string",
              "name": "name",
              "type": "string"
            },
            {
              "internalType": "string",
              "name": "sort",
              "type": "string"
            },
            {
              "internalType": "uint256",
              "name": "end",
              "type": "uint256"
            },
            {
              "internalType": "uint256",
              "name": "price",
              "type": "uint256"
            },
            {
              "internalType": "uint256",
              "name": "start",
              "type": "uint256"
            },
            {
              "internalType": "uint256",
              "name": "votes",
              "type": "uint256"
            }
          ],
          "internalType": "struct Renting.Property",
          "name": "",
          "type": "tuple"
        }
      ],
      "stateMutability": "view",
      "type": "function"
    },
    {
      "inputs": [
        {
          "internalType": "bytes32",
          "name": "_id",
          "type": "bytes32"
        }
      ],
      "name": "getRentRequests",
      "outputs": [
        {
          "internalType": "address[]",
          "name": "",
          "type": "address[]"
        }
      ],
      "stateMutability": "view",
      "type": "function"
    },
    {
      "inputs": [
        {
          "internalType": "bytes32",
          "name": "_id",
          "type": "bytes32"
        },
        {
          "internalType": "address",
          "name": "_hirer",
          "type": "address"
        },
        {
          "internalType": "uint256",
          "name": "_endDateAsDay",
          "type": "uint256"
        }
      ],
      "name": "rentProperty",
      "outputs": [],
      "stateMutability": "nonpayable",
      "type": "function"
    },
    {
      "inputs": [
        {
          "internalType": "bytes32",
          "name": "_id",
          "type": "bytes32"
        }
      ],
      "name": "rentRequest",
      "outputs": [],
      "stateMutability": "nonpayable",
      "type": "function"
    },
    {
      "stateMutability": "payable",
      "type": "receive"
    }
  ],
  "bytecode": "0x608060405234801561001057600080fd5b5033600160006101000a81548173ffffffffffffffffffffffffffffffffffffffff021916908373ffffffffffffffffffffffffffffffffffffffff1602179055506147ac806100616000396000f3fe6080604052600436106100c65760003560e01c8063ddf423b91161007f578063e93bfa5211610059578063e93bfa521461026e578063ebda7923146102ab578063ec0cfd0b146102d4578063ffa103c8146102ff576100d0565b8063ddf423b9146101f3578063e5e5b6dc1461021c578063e7573f3f14610245576100d0565b806310c434fc146100d55780631d40b9ac146101125780635646fd981461013b5780639cebda3114610164578063bcdc8c881461018d578063bd6f8790146101b6576100d0565b366100d057600080fd5b600080fd5b3480156100e157600080fd5b506100fc60048036038101906100f79190612faf565b610328565b60405161010991906131ed565b60405180910390f35b34801561011e57600080fd5b5061013960048036038101906101349190613274565b61060b565b005b34801561014757600080fd5b50610162600480360381019061015d9190613300565b610ba1565b005b34801561017057600080fd5b5061018b6004803603810190610186919061336c565b610cd9565b005b34801561019957600080fd5b506101b460048036038101906101af9190613274565b61106f565b005b3480156101c257600080fd5b506101dd60048036038101906101d89190612faf565b611605565b6040516101ea9190613485565b60405180910390f35b3480156101ff57600080fd5b5061021a60048036038101906102159190612faf565b61199e565b005b34801561022857600080fd5b50610243600480360381019061023e9190612faf565b611d58565b005b34801561025157600080fd5b5061026c600480360381019061026791906134a7565b612048565b005b34801561027a57600080fd5b5061029560048036038101906102909190612faf565b6124c3565b6040516102a291906135a9565b60405180910390f35b3480156102b757600080fd5b506102d260048036038101906102cd9190612faf565b612564565b005b3480156102e057600080fd5b506102e9612875565b6040516102f6919061367a565b60405180910390f35b34801561030b57600080fd5b5061032660048036038101906103219190612faf565b6128cd565b005b610330612e3a565b600060076000848152602001908152602001600020604051806101600160405290816000820160009054906101000a900473ffffffffffffffffffffffffffffffffffffffff1673ffffffffffffffffffffffffffffffffffffffff1673ffffffffffffffffffffffffffffffffffffffff1681526020016001820160009054906101000a900473ffffffffffffffffffffffffffffffffffffffff1673ffffffffffffffffffffffffffffffffffffffff1673ffffffffffffffffffffffffffffffffffffffff1681526020016001820160149054906101000a900460ff1615151515815260200160028201548152602001600382018054610432906136cb565b80601f016020809104026020016040519081016040528092919081815260200182805461045e906136cb565b80156104ab5780601f10610480576101008083540402835291602001916104ab565b820191906000526020600020905b81548152906001019060200180831161048e57829003601f168201915b505050505081526020016004820180546104c4906136cb565b80601f01602080910402602001604051908101604052809291908181526020018280546104f0906136cb565b801561053d5780601f106105125761010080835404028352916020019161053d565b820191906000526020600020905b81548152906001019060200180831161052057829003601f168201915b50505050508152602001600582018054610556906136cb565b80601f0160208091040260200160405190810160405280929190818152602001828054610582906136cb565b80156105cf5780601f106105a4576101008083540402835291602001916105cf565b820191906000526020600020905b8154815290600101906020018083116105b257829003601f168201915b50505050508152602001600682015481526020016007820154815260200160088201548152602001600982015481525050905080915050919050565b82600073ffffffffffffffffffffffffffffffffffffffff166007600083815260200190815260200160002060010160009054906101000a900473ffffffffffffffffffffffffffffffffffffffff1673ffffffffffffffffffffffffffffffffffffffff16036106b1576040517f08c379a00000000000000000000000000000000000000000000000000000000081526004016106a890613759565b60405180910390fd5b3373ffffffffffffffffffffffffffffffffffffffff166007600083815260200190815260200160002060000160009054906101000a900473ffffffffffffffffffffffffffffffffffffffff1673ffffffffffffffffffffffffffffffffffffffff16148061078257503373ffffffffffffffffffffffffffffffffffffffff166007600083815260200190815260200160002060010160009054906101000a900473ffffffffffffffffffffffffffffffffffffffff1673ffffffffffffffffffffffffffffffffffffffff16145b6107c1576040517f08c379a00000000000000000000000000000000000000000000000000000000081526004016107b8906137eb565b60405180910390fd5b3373ffffffffffffffffffffffffffffffffffffffff166003600083815260200190815260200160002060003373ffffffffffffffffffffffffffffffffffffffff1673ffffffffffffffffffffffffffffffffffffffff16815260200190815260200160002060000160009054906101000a900473ffffffffffffffffffffffffffffffffffffffff1673ffffffffffffffffffffffffffffffffffffffff16036108a2576040517f08c379a000000000000000000000000000000000000000000000000000000000815260040161089990613857565b60405180910390fd5b3373ffffffffffffffffffffffffffffffffffffffff166007600086815260200190815260200160002060010160009054906101000a900473ffffffffffffffffffffffffffffffffffffffff1673ffffffffffffffffffffffffffffffffffffffff1614610946576040517f08c379a000000000000000000000000000000000000000000000000000000000815260040161093d906138e9565b60405180910390fd5b60405180606001604052803373ffffffffffffffffffffffffffffffffffffffff1681526020016007600087815260200190815260200160002060000160009054906101000a900473ffffffffffffffffffffffffffffffffffffffff1673ffffffffffffffffffffffffffffffffffffffff16815260200184848080601f016020809104026020016040519081016040528093929190818152602001838380828437600081840152601f19601f820116905080830192505050505050508152506003600086815260200190815260200160002060003373ffffffffffffffffffffffffffffffffffffffff1673ffffffffffffffffffffffffffffffffffffffff16815260200190815260200160002060008201518160000160006101000a81548173ffffffffffffffffffffffffffffffffffffffff021916908373ffffffffffffffffffffffffffffffffffffffff16021790555060208201518160010160006101000a81548173ffffffffffffffffffffffffffffffffffffffff021916908373ffffffffffffffffffffffffffffffffffffffff1602179055506040820151816002019081610afa9190613ae4565b509050506007600085815260200190815260200160002060000160009054906101000a900473ffffffffffffffffffffffffffffffffffffffff1673ffffffffffffffffffffffffffffffffffffffff163373ffffffffffffffffffffffffffffffffffffffff167feb77b1d3ac597ebf952c38880452fc23ad8e2cf59f4c55b7a131febb27c565c58585604051610b93929190613bf2565b60405180910390a350505050565b600160009054906101000a900473ffffffffffffffffffffffffffffffffffffffff1673ffffffffffffffffffffffffffffffffffffffff163373ffffffffffffffffffffffffffffffffffffffff1614610c31576040517f08c379a0000000000000000000000000000000000000000000000000000000008152600401610c2890613c88565b60405180910390fd5b610c3a826128cd565b6001600460008373ffffffffffffffffffffffffffffffffffffffff1673ffffffffffffffffffffffffffffffffffffffff16815260200190815260200160002060006101000a81548160ff0219169083151502179055508073ffffffffffffffffffffffffffffffffffffffff167fde6d97dc8e363f2863226c6f890cefd62181582bf31055890a9a3c79d51c0d6c60405160405180910390a25050565b600460003373ffffffffffffffffffffffffffffffffffffffff1673ffffffffffffffffffffffffffffffffffffffff16815260200190815260200160002060009054906101000a900460ff1615610d66576040517f08c379a0000000000000000000000000000000000000000000000000000000008152600401610d5d90613cf4565b60405180910390fd5b6000610d70612dca565b90506040518061016001604052803373ffffffffffffffffffffffffffffffffffffffff168152602001600073ffffffffffffffffffffffffffffffffffffffff16815260200160011515815260200182815260200185858080601f016020809104026020016040519081016040528093929190818152602001838380828437600081840152601f19601f82011690508083019250505050505050815260200189898080601f016020809104026020016040519081016040528093929190818152602001838380828437600081840152601f19601f82011690508083019250505050505050815260200187878080601f016020809104026020016040519081016040528093929190818152602001838380828437600081840152601f19601f820116905080830192505050505050508152602001600081526020018381526020016000815260200160008152506007600083815260200190815260200160002060008201518160000160006101000a81548173ffffffffffffffffffffffffffffffffffffffff021916908373ffffffffffffffffffffffffffffffffffffffff16021790555060208201518160010160006101000a81548173ffffffffffffffffffffffffffffffffffffffff021916908373ffffffffffffffffffffffffffffffffffffffff16021790555060408201518160010160146101000a81548160ff021916908315150217905550606082015181600201556080820151816003019081610f9d9190613ae4565b5060a0820151816004019081610fb39190613ae4565b5060c0820151816005019081610fc99190613ae4565b5060e082015181600601556101008201518160070155610120820151816008015561014082015181600901559050506002819080600181540180825580915050600190039060005260206000200160009091909190915055803373ffffffffffffffffffffffffffffffffffffffff167fa2b0cdba65d9c8d77809214dbf10d9d7abfb8eb7ec7a21f30eee7d724e348fc360405160405180910390a35050505050505050565b82600073ffffffffffffffffffffffffffffffffffffffff166007600083815260200190815260200160002060010160009054906101000a900473ffffffffffffffffffffffffffffffffffffffff1673ffffffffffffffffffffffffffffffffffffffff1603611115576040517f08c379a000000000000000000000000000000000000000000000000000000000815260040161110c90613759565b60405180910390fd5b3373ffffffffffffffffffffffffffffffffffffffff166007600083815260200190815260200160002060000160009054906101000a900473ffffffffffffffffffffffffffffffffffffffff1673ffffffffffffffffffffffffffffffffffffffff1614806111e657503373ffffffffffffffffffffffffffffffffffffffff166007600083815260200190815260200160002060010160009054906101000a900473ffffffffffffffffffffffffffffffffffffffff1673ffffffffffffffffffffffffffffffffffffffff16145b611225576040517f08c379a000000000000000000000000000000000000000000000000000000000815260040161121c906137eb565b60405180910390fd5b3373ffffffffffffffffffffffffffffffffffffffff166003600083815260200190815260200160002060003373ffffffffffffffffffffffffffffffffffffffff1673ffffffffffffffffffffffffffffffffffffffff16815260200190815260200160002060000160009054906101000a900473ffffffffffffffffffffffffffffffffffffffff1673ffffffffffffffffffffffffffffffffffffffff1603611306576040517f08c379a00000000000000000000000000000000000000000000000000000000081526004016112fd90613857565b60405180910390fd5b3373ffffffffffffffffffffffffffffffffffffffff166007600086815260200190815260200160002060000160009054906101000a900473ffffffffffffffffffffffffffffffffffffffff1673ffffffffffffffffffffffffffffffffffffffff16146113aa576040517f08c379a00000000000000000000000000000000000000000000000000000000081526004016113a1906138e9565b60405180910390fd5b60405180606001604052803373ffffffffffffffffffffffffffffffffffffffff1681526020016007600087815260200190815260200160002060010160009054906101000a900473ffffffffffffffffffffffffffffffffffffffff1673ffffffffffffffffffffffffffffffffffffffff16815260200184848080601f016020809104026020016040519081016040528093929190818152602001838380828437600081840152601f19601f820116905080830192505050505050508152506003600086815260200190815260200160002060003373ffffffffffffffffffffffffffffffffffffffff1673ffffffffffffffffffffffffffffffffffffffff16815260200190815260200160002060008201518160000160006101000a81548173ffffffffffffffffffffffffffffffffffffffff021916908373ffffffffffffffffffffffffffffffffffffffff16021790555060208201518160010160006101000a81548173ffffffffffffffffffffffffffffffffffffffff021916908373ffffffffffffffffffffffffffffffffffffffff160217905550604082015181600201908161155e9190613ae4565b509050506007600085815260200190815260200160002060010160009054906101000a900473ffffffffffffffffffffffffffffffffffffffff1673ffffffffffffffffffffffffffffffffffffffff163373ffffffffffffffffffffffffffffffffffffffff167feb77b1d3ac597ebf952c38880452fc23ad8e2cf59f4c55b7a131febb27c565c585856040516115f7929190613bf2565b60405180910390a350505050565b61160d612ec5565b6007600083815260200190815260200160002060000160009054906101000a900473ffffffffffffffffffffffffffffffffffffffff1673ffffffffffffffffffffffffffffffffffffffff163373ffffffffffffffffffffffffffffffffffffffff1614806116de57506007600083815260200190815260200160002060010160009054906101000a900473ffffffffffffffffffffffffffffffffffffffff1673ffffffffffffffffffffffffffffffffffffffff163373ffffffffffffffffffffffffffffffffffffffff16145b61171d576040517f08c379a000000000000000000000000000000000000000000000000000000000815260040161171490613d86565b60405180910390fd5b3373ffffffffffffffffffffffffffffffffffffffff166003600084815260200190815260200160002060003373ffffffffffffffffffffffffffffffffffffffff1673ffffffffffffffffffffffffffffffffffffffff16815260200190815260200160002060000160009054906101000a900473ffffffffffffffffffffffffffffffffffffffff1673ffffffffffffffffffffffffffffffffffffffff16146117fe576040517f08c379a00000000000000000000000000000000000000000000000000000000081526004016117f590613df2565b60405180910390fd5b6003600083815260200190815260200160002060003373ffffffffffffffffffffffffffffffffffffffff1673ffffffffffffffffffffffffffffffffffffffff1681526020019081526020016000206040518060600160405290816000820160009054906101000a900473ffffffffffffffffffffffffffffffffffffffff1673ffffffffffffffffffffffffffffffffffffffff1673ffffffffffffffffffffffffffffffffffffffff1681526020016001820160009054906101000a900473ffffffffffffffffffffffffffffffffffffffff1673ffffffffffffffffffffffffffffffffffffffff1673ffffffffffffffffffffffffffffffffffffffff168152602001600282018054611915906136cb565b80601f0160208091040260200160405190810160405280929190818152602001828054611941906136cb565b801561198e5780601f106119635761010080835404028352916020019161198e565b820191906000526020600020905b81548152906001019060200180831161197157829003601f168201915b5050505050815250509050919050565b80600115156007600083815260200190815260200160002060010160149054906101000a900460ff16151514611a09576040517f08c379a0000000000000000000000000000000000000000000000000000000008152600401611a0090613e5e565b60405180910390fd5b6007600082815260200190815260200160002060000160009054906101000a900473ffffffffffffffffffffffffffffffffffffffff1673ffffffffffffffffffffffffffffffffffffffff163373ffffffffffffffffffffffffffffffffffffffff1603611aad576040517f08c379a0000000000000000000000000000000000000000000000000000000008152600401611aa490613ef0565b60405180910390fd5b81600460003373ffffffffffffffffffffffffffffffffffffffff1673ffffffffffffffffffffffffffffffffffffffff16815260200190815260200160002060009054906101000a900460ff1615611b3b576040517f08c379a0000000000000000000000000000000000000000000000000000000008152600401611b3290613f5c565b60405180910390fd5b600060096000838152602001908152602001600020805480602002602001604051908101604052809291908181526020018280548015611bd057602002820191906000526020600020905b8160009054906101000a900473ffffffffffffffffffffffffffffffffffffffff1673ffffffffffffffffffffffffffffffffffffffff1681526020019060010190808311611b86575b50505050509050600080600090505b82518163ffffffff161015611c57573373ffffffffffffffffffffffffffffffffffffffff16838263ffffffff1681518110611c1e57611c1d613f7c565b5b602002602001015173ffffffffffffffffffffffffffffffffffffffff1603611c4657600191505b80611c5090613fea565b9050611bdf565b508015611c99576040517f08c379a0000000000000000000000000000000000000000000000000000000008152600401611c9090614088565b60405180910390fd5b60096000868152602001908152602001600020339080600181540180825580915050600190039060005260206000200160009091909190916101000a81548173ffffffffffffffffffffffffffffffffffffffff021916908373ffffffffffffffffffffffffffffffffffffffff160217905550843373ffffffffffffffffffffffffffffffffffffffff167fcf8d7a3a5e62390deaf34488f1733f59a2fabe783a8044b27d5ed3d961b0c5c860405160405180910390a35050505050565b80600073ffffffffffffffffffffffffffffffffffffffff166007600083815260200190815260200160002060010160009054906101000a900473ffffffffffffffffffffffffffffffffffffffff1673ffffffffffffffffffffffffffffffffffffffff1614611dfe576040517f08c379a0000000000000000000000000000000000000000000000000000000008152600401611df5906140f4565b60405180910390fd5b600073ffffffffffffffffffffffffffffffffffffffff166007600083815260200190815260200160002060000160009054906101000a900473ffffffffffffffffffffffffffffffffffffffff1673ffffffffffffffffffffffffffffffffffffffff1603611ea3576040517f08c379a0000000000000000000000000000000000000000000000000000000008152600401611e9a90614186565b60405180910390fd5b3373ffffffffffffffffffffffffffffffffffffffff166007600083815260200190815260200160002060000160009054906101000a900473ffffffffffffffffffffffffffffffffffffffff1673ffffffffffffffffffffffffffffffffffffffff1614611f47576040517f08c379a0000000000000000000000000000000000000000000000000000000008152600401611f3e90614218565b60405180910390fd5b60076000838152602001908152602001600020600080820160006101000a81549073ffffffffffffffffffffffffffffffffffffffff02191690556001820160006101000a81549073ffffffffffffffffffffffffffffffffffffffff02191690556001820160146101000a81549060ff02191690556002820160009055600382016000611fd59190612f12565b600482016000611fe59190612f12565b600582016000611ff59190612f12565b60068201600090556007820160009055600882016000905560098201600090555050817f9a2ce88653313dfc162625846c84051361afa6d2ed27a79e75532fcc70eec7e460405160405180910390a25050565b600460003373ffffffffffffffffffffffffffffffffffffffff1673ffffffffffffffffffffffffffffffffffffffff16815260200190815260200160002060009054906101000a900460ff16156120d5576040517f08c379a00000000000000000000000000000000000000000000000000000000081526004016120cc90613cf4565b60405180910390fd5b600115156007600085815260200190815260200160002060010160149054906101000a900460ff1615151461213f576040517f08c379a000000000000000000000000000000000000000000000000000000000815260040161213690613e5e565b60405180910390fd5b6007600084815260200190815260200160002060000160009054906101000a900473ffffffffffffffffffffffffffffffffffffffff1673ffffffffffffffffffffffffffffffffffffffff163373ffffffffffffffffffffffffffffffffffffffff16146121e3576040517f08c379a00000000000000000000000000000000000000000000000000000000081526004016121da906142aa565b60405180910390fd5b816007600085815260200190815260200160002060010160006101000a81548173ffffffffffffffffffffffffffffffffffffffff021916908373ffffffffffffffffffffffffffffffffffffffff16021790555060006007600085815260200190815260200160002060010160146101000a81548160ff021916908315150217905550426007600085815260200190815260200160002060080181905550620151808161229191906142ca565b4261229c919061430c565b600760008581526020019081526020016000206006018190555060076000848152602001908152602001600020600560008473ffffffffffffffffffffffffffffffffffffffff1673ffffffffffffffffffffffffffffffffffffffff1681526020019081526020016000206002016000820160009054906101000a900473ffffffffffffffffffffffffffffffffffffffff168160000160006101000a81548173ffffffffffffffffffffffffffffffffffffffff021916908373ffffffffffffffffffffffffffffffffffffffff1602179055506001820160009054906101000a900473ffffffffffffffffffffffffffffffffffffffff168160010160006101000a81548173ffffffffffffffffffffffffffffffffffffffff021916908373ffffffffffffffffffffffffffffffffffffffff1602179055506001820160149054906101000a900460ff168160010160146101000a81548160ff02191690831515021790555060028201548160020155600382018160030190816124249190614356565b50600482018160040190816124399190614356565b506005820181600501908161244e9190614356565b5060068201548160060155600782015481600701556008820154816008015560098201548160090155905050823373ffffffffffffffffffffffffffffffffffffffff167fc0b7ebdc4004125b7bdabbeb9d8626aa06ac958459f120010052ea08ae3da28e60405160405180910390a3505050565b60606009600083815260200190815260200160002080548060200260200160405190810160405280929190818152602001828054801561255857602002820191906000526020600020905b8160009054906101000a900473ffffffffffffffffffffffffffffffffffffffff1673ffffffffffffffffffffffffffffffffffffffff168152602001906001019080831161250e575b50505050509050919050565b803373ffffffffffffffffffffffffffffffffffffffff166007600083815260200190815260200160002060000160009054906101000a900473ffffffffffffffffffffffffffffffffffffffff1673ffffffffffffffffffffffffffffffffffffffff16148061263657503373ffffffffffffffffffffffffffffffffffffffff166007600083815260200190815260200160002060010160009054906101000a900473ffffffffffffffffffffffffffffffffffffffff1673ffffffffffffffffffffffffffffffffffffffff16145b612675576040517f08c379a000000000000000000000000000000000000000000000000000000000815260040161266c906144b0565b60405180910390fd5b600015156008600083815260200190815260200160002060003373ffffffffffffffffffffffffffffffffffffffff1673ffffffffffffffffffffffffffffffffffffffff16815260200190815260200160002060009054906101000a900460ff16151514612719576040517f08c379a000000000000000000000000000000000000000000000000000000000815260040161271090614542565b60405180910390fd5b6002600760008381526020019081526020016000206009015410612772576040517f08c379a0000000000000000000000000000000000000000000000000000000008152600401612769906145d4565b60405180910390fd5b60016008600084815260200190815260200160002060003373ffffffffffffffffffffffffffffffffffffffff1673ffffffffffffffffffffffffffffffffffffffff16815260200190815260200160002060006101000a81548160ff02191690831515021790555060076000838152602001908152602001600020600901600081546127fe906145f4565b91905081905550600260076000848152602001908152602001600020600901540361282d5761282c826128cd565b5b813373ffffffffffffffffffffffffffffffffffffffff167f85c09215614dcbd9cc102583e79eb60dd0e67910227dbbf1aceb1d885eb0ff7160405160405180910390a35050565b606060028054806020026020016040519081016040528092919081815260200182805480156128c357602002820191906000526020600020905b8154815260200190600101908083116128af575b5050505050905090565b80600073ffffffffffffffffffffffffffffffffffffffff166007600083815260200190815260200160002060010160009054906101000a900473ffffffffffffffffffffffffffffffffffffffff1673ffffffffffffffffffffffffffffffffffffffff1603612973576040517f08c379a000000000000000000000000000000000000000000000000000000000815260040161296a90613759565b60405180910390fd5b600160009054906101000a900473ffffffffffffffffffffffffffffffffffffffff1673ffffffffffffffffffffffffffffffffffffffff163373ffffffffffffffffffffffffffffffffffffffff1614612b32573373ffffffffffffffffffffffffffffffffffffffff166007600083815260200190815260200160002060000160009054906101000a900473ffffffffffffffffffffffffffffffffffffffff1673ffffffffffffffffffffffffffffffffffffffff161480612a9957503373ffffffffffffffffffffffffffffffffffffffff166007600083815260200190815260200160002060010160009054906101000a900473ffffffffffffffffffffffffffffffffffffffff1673ffffffffffffffffffffffffffffffffffffffff16145b612ad8576040517f08c379a0000000000000000000000000000000000000000000000000000000008152600401612acf90614688565b60405180910390fd5b6002600760008381526020019081526020016000206009015414612b31576040517f08c379a0000000000000000000000000000000000000000000000000000000008152600401612b289061471a565b60405180910390fd5b5b6008600083815260200190815260200160002060006007600085815260200190815260200160002060010160009054906101000a900473ffffffffffffffffffffffffffffffffffffffff1673ffffffffffffffffffffffffffffffffffffffff1673ffffffffffffffffffffffffffffffffffffffff16815260200190815260200160002060006101000a81549060ff02191690556008600083815260200190815260200160002060006007600085815260200190815260200160002060000160009054906101000a900473ffffffffffffffffffffffffffffffffffffffff1673ffffffffffffffffffffffffffffffffffffffff1673ffffffffffffffffffffffffffffffffffffffff16815260200190815260200160002060006101000a81549060ff021916905560006007600084815260200190815260200160002060010160006101000a81548173ffffffffffffffffffffffffffffffffffffffff021916908373ffffffffffffffffffffffffffffffffffffffff16021790555060016007600084815260200190815260200160002060010160146101000a81548160ff02191690831515021790555060006007600084815260200190815260200160002060090181905550816007600084815260200190815260200160002060010160009054906101000a900473ffffffffffffffffffffffffffffffffffffffff1673ffffffffffffffffffffffffffffffffffffffff166007600085815260200190815260200160002060000160009054906101000a900473ffffffffffffffffffffffffffffffffffffffff1673ffffffffffffffffffffffffffffffffffffffff167ff21ec23321d5561f828a9e415cca061ddbb8098d4853d177c82d75a97d8d404960405160405180910390a45050565b6000612dd66000612e16565b42612de16000612e2c565b612deb919061430c565b604051602001612dfb919061475b565b60405160208183030381529060405280519060200120905090565b6001816000016000828254019250508190555050565b600081600001549050919050565b604051806101600160405280600073ffffffffffffffffffffffffffffffffffffffff168152602001600073ffffffffffffffffffffffffffffffffffffffff16815260200160001515815260200160008019168152602001606081526020016060815260200160608152602001600081526020016000815260200160008152602001600081525090565b6040518060600160405280600073ffffffffffffffffffffffffffffffffffffffff168152602001600073ffffffffffffffffffffffffffffffffffffffff168152602001606081525090565b508054612f1e906136cb565b6000825580601f10612f305750612f4f565b601f016020900490600052602060002090810190612f4e9190612f52565b5b50565b5b80821115612f6b576000816000905550600101612f53565b5090565b600080fd5b600080fd5b6000819050919050565b612f8c81612f79565b8114612f9757600080fd5b50565b600081359050612fa981612f83565b92915050565b600060208284031215612fc557612fc4612f6f565b5b6000612fd384828501612f9a565b91505092915050565b600073ffffffffffffffffffffffffffffffffffffffff82169050919050565b600061300782612fdc565b9050919050565b61301781612ffc565b82525050565b60008115159050919050565b6130328161301d565b82525050565b61304181612f79565b82525050565b600081519050919050565b600082825260208201905092915050565b60005b83811015613081578082015181840152602081019050613066565b60008484015250505050565b6000601f19601f8301169050919050565b60006130a982613047565b6130b38185613052565b93506130c3818560208601613063565b6130cc8161308d565b840191505092915050565b6000819050919050565b6130ea816130d7565b82525050565b600061016083016000830151613109600086018261300e565b50602083015161311c602086018261300e565b50604083015161312f6040860182613029565b5060608301516131426060860182613038565b506080830151848203608086015261315a828261309e565b91505060a083015184820360a0860152613174828261309e565b91505060c083015184820360c086015261318e828261309e565b91505060e08301516131a360e08601826130e1565b506101008301516131b86101008601826130e1565b506101208301516131cd6101208601826130e1565b506101408301516131e26101408601826130e1565b508091505092915050565b6000602082019050818103600083015261320781846130f0565b905092915050565b600080fd5b600080fd5b600080fd5b60008083601f8401126132345761323361320f565b5b8235905067ffffffffffffffff81111561325157613250613214565b5b60208301915083600182028301111561326d5761326c613219565b5b9250929050565b60008060006040848603121561328d5761328c612f6f565b5b600061329b86828701612f9a565b935050602084013567ffffffffffffffff8111156132bc576132bb612f74565b5b6132c88682870161321e565b92509250509250925092565b6132dd81612ffc565b81146132e857600080fd5b50565b6000813590506132fa816132d4565b92915050565b6000806040838503121561331757613316612f6f565b5b600061332585828601612f9a565b9250506020613336858286016132eb565b9150509250929050565b613349816130d7565b811461335457600080fd5b50565b60008135905061336681613340565b92915050565b60008060008060008060006080888a03121561338b5761338a612f6f565b5b600088013567ffffffffffffffff8111156133a9576133a8612f74565b5b6133b58a828b0161321e565b9750975050602088013567ffffffffffffffff8111156133d8576133d7612f74565b5b6133e48a828b0161321e565b9550955050604088013567ffffffffffffffff81111561340757613406612f74565b5b6134138a828b0161321e565b935093505060606134268a828b01613357565b91505092959891949750929550565b600060608301600083015161344d600086018261300e565b506020830151613460602086018261300e565b5060408301518482036040860152613478828261309e565b9150508091505092915050565b6000602082019050818103600083015261349f8184613435565b905092915050565b6000806000606084860312156134c0576134bf612f6f565b5b60006134ce86828701612f9a565b93505060206134df868287016132eb565b92505060406134f086828701613357565b9150509250925092565b600081519050919050565b600082825260208201905092915050565b6000819050602082019050919050565b6000613532838361300e565b60208301905092915050565b6000602082019050919050565b6000613556826134fa565b6135608185613505565b935061356b83613516565b8060005b8381101561359c5781516135838882613526565b975061358e8361353e565b92505060018101905061356f565b5085935050505092915050565b600060208201905081810360008301526135c3818461354b565b905092915050565b600081519050919050565b600082825260208201905092915050565b6000819050602082019050919050565b60006136038383613038565b60208301905092915050565b6000602082019050919050565b6000613627826135cb565b61363181856135d6565b935061363c836135e7565b8060005b8381101561366d57815161365488826135f7565b975061365f8361360f565b925050600181019050613640565b5085935050505092915050565b60006020820190508181036000830152613694818461361c565b905092915050565b7f4e487b7100000000000000000000000000000000000000000000000000000000600052602260045260246000fd5b600060028204905060018216806136e357607f821691505b6020821081036136f6576136f561369c565b5b50919050565b600082825260208201905092915050565b7f546869732070726f706572747920686173206e6f742072656e74656400000000600082015250565b6000613743601c836136fc565b915061374e8261370d565b602082019050919050565b6000602082019050818103600083015261377281613736565b9050919050565b7f596f752063616e27742063726561746520636f6d706c61696e7420666f72207460008201527f6869732070726f70657274790000000000000000000000000000000000000000602082015250565b60006137d5602c836136fc565b91506137e082613779565b604082019050919050565b60006020820190508181036000830152613804816137c8565b9050919050565b7f596f7520616c72656164792063726561746564206120636f6d706c61696e7400600082015250565b6000613841601f836136fc565b915061384c8261380b565b602082019050919050565b6000602082019050818103600083015261387081613834565b9050919050565b7f596f752063616e27742063726561746520636f6d706c61696e7420666f72207960008201527f6f757273656c6600000000000000000000000000000000000000000000000000602082015250565b60006138d36027836136fc565b91506138de82613877565b604082019050919050565b60006020820190508181036000830152613902816138c6565b9050919050565b7f4e487b7100000000000000000000000000000000000000000000000000000000600052604160045260246000fd5b60008190508160005260206000209050919050565b60006020601f8301049050919050565b600082821b905092915050565b60006008830261399a7fffffffffffffffffffffffffffffffffffffffffffffffffffffffffffffffff8261395d565b6139a4868361395d565b95508019841693508086168417925050509392505050565b6000819050919050565b60006139e16139dc6139d7846130d7565b6139bc565b6130d7565b9050919050565b6000819050919050565b6139fb836139c6565b613a0f613a07826139e8565b84845461396a565b825550505050565b600090565b613a24613a17565b613a2f8184846139f2565b505050565b5b81811015613a5357613a48600082613a1c565b600181019050613a35565b5050565b601f821115613a9857613a6981613938565b613a728461394d565b81016020851015613a81578190505b613a95613a8d8561394d565b830182613a34565b50505b505050565b600082821c905092915050565b6000613abb60001984600802613a9d565b1980831691505092915050565b6000613ad48383613aaa565b9150826002028217905092915050565b613aed82613047565b67ffffffffffffffff811115613b0657613b05613909565b5b613b1082546136cb565b613b1b828285613a57565b600060209050601f831160018114613b4e5760008415613b3c578287015190505b613b468582613ac8565b865550613bae565b601f198416613b5c86613938565b60005b82811015613b8457848901518255600182019150602085019450602081019050613b5f565b86831015613ba15784890151613b9d601f891682613aaa565b8355505b6001600288020188555050505b505050505050565b82818337600083830152505050565b6000613bd183856136fc565b9350613bde838584613bb6565b613be78361308d565b840190509392505050565b60006020820190508181036000830152613c0d818486613bc5565b90509392505050565b7f4f6e6c7920636f6e7472616374206f776e65722063616e20657865637574652060008201527f7468697320636f6d6d616e640000000000000000000000000000000000000000602082015250565b6000613c72602c836136fc565b9150613c7d82613c16565b604082019050919050565b60006020820190508181036000830152613ca181613c65565b9050919050565b7f54686973206f776e65722063616e27742072656e742070726f70657274790000600082015250565b6000613cde601e836136fc565b9150613ce982613ca8565b602082019050919050565b60006020820190508181036000830152613d0d81613cd1565b9050919050565b7f596f752063616e27742067657420636f6d706c61696e7473206f66207468697360008201527f2070726f70657274790000000000000000000000000000000000000000000000602082015250565b6000613d706029836136fc565b9150613d7b82613d14565b604082019050919050565b60006020820190508181036000830152613d9f81613d63565b9050919050565b7f596f75206469646e2774206372656174656420636f6d706c61696e7400000000600082015250565b6000613ddc601c836136fc565b9150613de782613da6565b602082019050919050565b60006020820190508181036000830152613e0b81613dcf565b9050919050565b7f546869732070726f706572747920616c72656164792072656e74656400000000600082015250565b6000613e48601c836136fc565b9150613e5382613e12565b602082019050919050565b60006020820190508181036000830152613e7781613e3b565b9050919050565b7f596f752063616e6e6f74206869726520796f7572206f776e2070726f7065727460008201527f7900000000000000000000000000000000000000000000000000000000000000602082015250565b6000613eda6021836136fc565b9150613ee582613e7e565b604082019050919050565b60006020820190508181036000830152613f0981613ecd565b9050919050565b7f5468697320757365722063616e27742072656e742070726f7065727479000000600082015250565b6000613f46601d836136fc565b9150613f5182613f10565b602082019050919050565b60006020820190508181036000830152613f7581613f39565b9050919050565b7f4e487b7100000000000000000000000000000000000000000000000000000000600052603260045260246000fd5b7f4e487b7100000000000000000000000000000000000000000000000000000000600052601160045260246000fd5b600063ffffffff82169050919050565b6000613ff582613fda565b915063ffffffff820361400b5761400a613fab565b5b600182019050919050565b7f596f752063616e27742073656e74207265717565737420616761696e20666f7260008201527f20746869732070726f7065727479000000000000000000000000000000000000602082015250565b6000614072602e836136fc565b915061407d82614016565b604082019050919050565b600060208201905081810360008301526140a181614065565b9050919050565b7f546869732070726f7065727479206861732072656e7465640000000000000000600082015250565b60006140de6018836136fc565b91506140e9826140a8565b602082019050919050565b6000602082019050818103600083015261410d816140d1565b9050919050565b7f546865726520617265206e6f2070726f7065727479207769746820676976656e60008201527f2069640000000000000000000000000000000000000000000000000000000000602082015250565b60006141706023836136fc565b915061417b82614114565b604082019050919050565b6000602082019050818103600083015261419f81614163565b9050919050565b7f596f7520617265206e6f7420746865206f776e6572206f66207468697320707260008201527f6f70657274790000000000000000000000000000000000000000000000000000602082015250565b60006142026026836136fc565b915061420d826141a6565b604082019050919050565b60006020820190508181036000830152614231816141f5565b9050919050565b7f4f6e6c79206f776e65722063616e2065786563757465207468697320636f6d6d60008201527f616e640000000000000000000000000000000000000000000000000000000000602082015250565b60006142946023836136fc565b915061429f82614238565b604082019050919050565b600060208201905081810360008301526142c381614287565b9050919050565b60006142d5826130d7565b91506142e0836130d7565b92508282026142ee816130d7565b9150828204841483151761430557614304613fab565b5b5092915050565b6000614317826130d7565b9150614322836130d7565b925082820190508082111561433a57614339613fab565b5b92915050565b60008154905061434f816136cb565b9050919050565b81810361436457505061443c565b61436d82614340565b67ffffffffffffffff81111561438657614385613909565b5b61439082546136cb565b61439b828285613a57565b6000601f8311600181146143ca57600084156143b8578287015490505b6143c28582613ac8565b865550614435565b601f1984166143d887613938565b96506143e386613938565b60005b8281101561440b578489015482556001820191506001850194506020810190506143e6565b868310156144285784890154614424601f891682613aaa565b8355505b6001600288020188555050505b5050505050505b565b7f596f752063616e27742063726561746520627265616b2072657175657374206660008201527f6f7220746869732070726f706572747900000000000000000000000000000000602082015250565b600061449a6030836136fc565b91506144a58261443e565b604082019050919050565b600060208201905081810360008301526144c98161448d565b9050919050565b7f54686973207573657220616c7265616479207369676e6564207468697320616760008201527f7265656d656e7400000000000000000000000000000000000000000000000000602082015250565b600061452c6027836136fc565b9150614537826144d0565b604082019050919050565b6000602082019050818103600083015261455b8161451f565b9050919050565b7f4e6f206d6f72652075736572732063616e207369676e2074686973206167726560008201527f656d656e7420616e796d6f726500000000000000000000000000000000000000602082015250565b60006145be602d836136fc565b91506145c982614562565b604082019050919050565b600060208201905081810360008301526145ed816145b1565b9050919050565b60006145ff826130d7565b91507fffffffffffffffffffffffffffffffffffffffffffffffffffffffffffffffff820361463157614630613fab565b5b600182019050919050565b7f596f752063616e277420627265616b20746869732061677265656d656e740000600082015250565b6000614672601e836136fc565b915061467d8261463c565b602082019050919050565b600060208201905081810360008301526146a181614665565b9050919050565b7f416c6c207573657273206861766520746f207369676e2072657175657374207460008201527f6f20627265616b2061677265656d656e74000000000000000000000000000000602082015250565b60006147046031836136fc565b915061470f826146a8565b604082019050919050565b60006020820190508181036000830152614733816146f7565b9050919050565b6000819050919050565b614755614750826130d7565b61473a565b82525050565b60006147678284614744565b6020820191508190509291505056fea26469706673582212209852731cb7fbd49507070fbba7156444d268c88673127cc6d765cffa03bd558b64736f6c63430008160033",
  "linkReferences": {},
  "deployedLinkReferences": {}
}