{
  "_format": "hh-sol-artifact-1",
  "contractName": "Renting",
  "sourceName": "contracts/Renting.sol",
  "abi": [
    {
      "inputs": [],
      "stateMutability": "nonpayable",
      "type": "constructor"
    },
    {
      "anonymous": false,
      "inputs": [
        {
          "indexed": true,
          "internalType": "address",
          "name": "owner",
          "type": "address"
        },
        {
          "indexed": true,
          "internalType": "address",
          "name": "hirer",
          "type": "address"
        },
        {
          "indexed": true,
          "internalType": "bytes32",
          "name": "id",
          "type": "bytes32"
        }
      ],
      "name": "AgreementBroken",
      "type": "event"
    },
    {
      "anonymous": false,
      "inputs": [
        {
          "indexed": true,
          "internalType": "address",
          "name": "requestedBy",
          "type": "address"
        },
        {
          "indexed": true,
          "internalType": "bytes32",
          "name": "propertyId",
          "type": "bytes32"
        }
      ],
      "name": "BreakRequested",
      "type": "event"
    },
    {
      "anonymous": false,
      "inputs": [
        {
          "indexed": true,
          "internalType": "address",
          "name": "from",
          "type": "address"
        },
        {
          "indexed": true,
          "internalType": "address",
          "name": "to",
          "type": "address"
        },
        {
          "indexed": false,
          "internalType": "string",
          "name": "problem",
          "type": "string"
        }
      ],
      "name": "CreateComplaint",
      "type": "event"
    },
    {
      "anonymous": false,
      "inputs": [
        {
          "indexed": true,
          "internalType": "address",
          "name": "owner",
          "type": "address"
        },
        {
          "indexed": true,
          "internalType": "bytes32",
          "name": "id",
          "type": "bytes32"
        }
      ],
      "name": "PropertyCreated",
      "type": "event"
    },
    {
      "anonymous": false,
      "inputs": [
        {
          "indexed": true,
          "internalType": "bytes32",
          "name": "id",
          "type": "bytes32"
        }
      ],
      "name": "PropertyDeleted",
      "type": "event"
    },
    {
      "anonymous": false,
      "inputs": [
        {
          "indexed": true,
          "internalType": "address",
          "name": "hirer",
          "type": "address"
        },
        {
          "indexed": true,
          "internalType": "bytes32",
          "name": "id",
          "type": "bytes32"
        }
      ],
      "name": "PropertyRented",
      "type": "event"
    },
    {
      "anonymous": false,
      "inputs": [
        {
          "indexed": true,
          "internalType": "address",
          "name": "from",
          "type": "address"
        },
        {
          "indexed": true,
          "internalType": "bytes32",
          "name": "id",
          "type": "bytes32"
        }
      ],
      "name": "RentRequestSent",
      "type": "event"
    },
    {
      "anonymous": false,
      "inputs": [
        {
          "indexed": true,
          "internalType": "address",
          "name": "adres",
          "type": "address"
        }
      ],
      "name": "UserMarked",
      "type": "event"
    },
    {
      "inputs": [
        {
          "internalType": "bytes32",
          "name": "_id",
          "type": "bytes32"
        }
      ],
      "name": "breakAgreement",
      "outputs": [],
      "stateMutability": "nonpayable",
      "type": "function"
    },
    {
      "inputs": [
        {
          "internalType": "bytes32",
          "name": "_id",
          "type": "bytes32"
        },
        {
          "internalType": "address",
          "name": "guilty",
          "type": "address"
        }
      ],
      "name": "breakAndAddToBlackList",
      "outputs": [],
      "stateMutability": "nonpayable",
      "type": "function"
    },
    {
      "inputs": [
        {
          "internalType": "bytes32",
          "name": "_id",
          "type": "bytes32"
        }
      ],
      "name": "createBreakRequest",
      "outputs": [],
      "stateMutability": "nonpayable",
      "type": "function"
    },
    {
      "inputs": [
        {
          "internalType": "bytes32",
          "name": "_id",
          "type": "bytes32"
        },
        {
          "internalType": "string",
          "name": "_reason",
          "type": "string"
        }
      ],
      "name": "createComplaintForHirer",
      "outputs": [],
      "stateMutability": "nonpayable",
      "type": "function"
    },
    {
      "inputs": [
        {
          "internalType": "bytes32",
          "name": "_id",
          "type": "bytes32"
        },
        {
          "internalType": "string",
          "name": "_reason",
          "type": "string"
        }
      ],
      "name": "createComplaintForOwner",
      "outputs": [],
      "stateMutability": "nonpayable",
      "type": "function"
    },
    {
      "inputs": [
        {
          "internalType": "string",
          "name": "_name",
          "type": "string"
        },
        {
          "internalType": "string",
          "name": "_sort",
          "type": "string"
        },
        {
          "internalType": "string",
          "name": "_adres",
          "type": "string"
        },
        {
          "internalType": "uint256",
          "name": "_price",
          "type": "uint256"
        }
      ],
      "name": "createProperty",
      "outputs": [],
      "stateMutability": "nonpayable",
      "type": "function"
    },
    {
      "inputs": [
        {
          "internalType": "bytes32",
          "name": "_id",
          "type": "bytes32"
        }
      ],
      "name": "deleteProperty",
      "outputs": [],
      "stateMutability": "nonpayable",
      "type": "function"
    },
    {
      "inputs": [
        {
          "internalType": "bytes32",
          "name": "_id",
          "type": "bytes32"
        }
      ],
      "name": "getAgreementComplaint",
      "outputs": [
        {
          "components": [
            {
              "internalType": "address",
              "name": "from",
              "type": "address"
            },
            {
              "internalType": "address",
              "name": "to",
              "type": "address"
            },
            {
              "internalType": "string",
              "name": "reason",
              "type": "string"
            }
          ],
          "internalType": "struct Renting.Complaint",
          "name": "",
          "type": "tuple"
        }
      ],
      "stateMutability": "view",
      "type": "function"
    },
    {
      "inputs": [],
      "name": "getProperties",
      "outputs": [
        {
          "internalType": "bytes32[]",
          "name": "",
          "type": "bytes32[]"
        }
      ],
      "stateMutability": "view",
      "type": "function"
    },
    {
      "inputs": [
        {
          "internalType": "bytes32",
          "name": "_id",
          "type": "bytes32"
        }
      ],
      "name": "getPropertyInfo",
      "outputs": [
        {
          "components": [
            {
              "internalType": "address",
              "name": "owner",
              "type": "address"
            },
            {
              "internalType": "address",
              "name": "hirer",
              "type": "address"
            },
            {
              "internalType": "bool",
              "name": "available",
              "type": "bool"
            },
            {
              "internalType": "bytes32",
              "name": "id",
              "type": "bytes32"
            },
            {
              "internalType": "string",
              "name": "adres",
              "type": "string"
            },
            {
              "internalType": "string",
              "name": "name",
              "type": "string"
            },
            {
              "internalType": "string",
              "name": "sort",
              "type": "string"
            },
            {
              "internalType": "uint256",
              "name": "end",
              "type": "uint256"
            },
            {
              "internalType": "uint256",
              "name": "price",
              "type": "uint256"
            },
            {
              "internalType": "uint256",
              "name": "start",
              "type": "uint256"
            },
            {
              "internalType": "uint256",
              "name": "votes",
              "type": "uint256"
            }
          ],
          "internalType": "struct Renting.Property",
          "name": "",
          "type": "tuple"
        }
      ],
      "stateMutability": "view",
      "type": "function"
    },
    {
      "inputs": [
        {
          "internalType": "bytes32",
          "name": "_id",
          "type": "bytes32"
        }
      ],
      "name": "getRentRequests",
      "outputs": [
        {
          "internalType": "address[]",
          "name": "",
          "type": "address[]"
        }
      ],
      "stateMutability": "view",
      "type": "function"
    },
    {
      "inputs": [
        {
          "internalType": "bytes32",
          "name": "_id",
          "type": "bytes32"
        },
        {
          "internalType": "address",
          "name": "_hirer",
          "type": "address"
        },
        {
          "internalType": "uint256",
          "name": "_endDateAsDay",
          "type": "uint256"
        }
      ],
      "name": "rentProperty",
      "outputs": [],
      "stateMutability": "nonpayable",
      "type": "function"
    },
    {
      "inputs": [
        {
          "internalType": "bytes32",
          "name": "_id",
          "type": "bytes32"
        }
      ],
      "name": "rentRequest",
      "outputs": [],
      "stateMutability": "nonpayable",
      "type": "function"
    },
    {
      "stateMutability": "payable",
      "type": "receive"
    }
  ],
  "bytecode": "0x608060405234801561001057600080fd5b5033600160006101000a81548173ffffffffffffffffffffffffffffffffffffffff021916908373ffffffffffffffffffffffffffffffffffffffff160217905550614547806100616000396000f3fe6080604052600436106100c65760003560e01c8063ddf423b91161007f578063e93bfa5211610059578063e93bfa521461026e578063ebda7923146102ab578063ec0cfd0b146102d4578063ffa103c8146102ff576100d0565b8063ddf423b9146101f3578063e5e5b6dc1461021c578063e7573f3f14610245576100d0565b806310c434fc146100d55780631d40b9ac146101125780635646fd981461013b5780639cebda3114610164578063bcdc8c881461018d578063bd6f8790146101b6576100d0565b366100d057600080fd5b600080fd5b3480156100e157600080fd5b506100fc60048036038101906100f79190612e47565b610328565b6040516101099190613085565b60405180910390f35b34801561011e57600080fd5b506101396004803603810190610134919061310c565b610605565b005b34801561014757600080fd5b50610162600480360381019061015d9190613198565b610b9b565b005b34801561017057600080fd5b5061018b60048036038101906101869190613204565b610cd3565b005b34801561019957600080fd5b506101b460048036038101906101af919061310c565b611069565b005b3480156101c257600080fd5b506101dd60048036038101906101d89190612e47565b6115ff565b6040516101ea919061331d565b60405180910390f35b3480156101ff57600080fd5b5061021a60048036038101906102159190612e47565b611998565b005b34801561022857600080fd5b50610243600480360381019061023e9190612e47565b611bf0565b005b34801561025157600080fd5b5061026c6004803603810190610267919061333f565b611ee0565b005b34801561027a57600080fd5b5061029560048036038101906102909190612e47565b61235b565b6040516102a29190613441565b60405180910390f35b3480156102b757600080fd5b506102d260048036038101906102cd9190612e47565b6123fc565b005b3480156102e057600080fd5b506102e961270d565b6040516102f69190613512565b60405180910390f35b34801561030b57600080fd5b5061032660048036038101906103219190612e47565b612765565b005b610330612cd2565b60076000838152602001908152602001600020604051806101600160405290816000820160009054906101000a900473ffffffffffffffffffffffffffffffffffffffff1673ffffffffffffffffffffffffffffffffffffffff1673ffffffffffffffffffffffffffffffffffffffff1681526020016001820160009054906101000a900473ffffffffffffffffffffffffffffffffffffffff1673ffffffffffffffffffffffffffffffffffffffff1673ffffffffffffffffffffffffffffffffffffffff1681526020016001820160149054906101000a900460ff161515151581526020016002820154815260200160038201805461043090613563565b80601f016020809104026020016040519081016040528092919081815260200182805461045c90613563565b80156104a95780601f1061047e576101008083540402835291602001916104a9565b820191906000526020600020905b81548152906001019060200180831161048c57829003601f168201915b505050505081526020016004820180546104c290613563565b80601f01602080910402602001604051908101604052809291908181526020018280546104ee90613563565b801561053b5780601f106105105761010080835404028352916020019161053b565b820191906000526020600020905b81548152906001019060200180831161051e57829003601f168201915b5050505050815260200160058201805461055490613563565b80601f016020809104026020016040519081016040528092919081815260200182805461058090613563565b80156105cd5780601f106105a2576101008083540402835291602001916105cd565b820191906000526020600020905b8154815290600101906020018083116105b057829003601f168201915b505050505081526020016006820154815260200160078201548152602001600882015481526020016009820154815250509050919050565b82600073ffffffffffffffffffffffffffffffffffffffff166007600083815260200190815260200160002060010160009054906101000a900473ffffffffffffffffffffffffffffffffffffffff1673ffffffffffffffffffffffffffffffffffffffff16036106ab576040517f08c379a00000000000000000000000000000000000000000000000000000000081526004016106a2906135f1565b60405180910390fd5b3373ffffffffffffffffffffffffffffffffffffffff166007600083815260200190815260200160002060000160009054906101000a900473ffffffffffffffffffffffffffffffffffffffff1673ffffffffffffffffffffffffffffffffffffffff16148061077c57503373ffffffffffffffffffffffffffffffffffffffff166007600083815260200190815260200160002060010160009054906101000a900473ffffffffffffffffffffffffffffffffffffffff1673ffffffffffffffffffffffffffffffffffffffff16145b6107bb576040517f08c379a00000000000000000000000000000000000000000000000000000000081526004016107b290613683565b60405180910390fd5b3373ffffffffffffffffffffffffffffffffffffffff166003600083815260200190815260200160002060003373ffffffffffffffffffffffffffffffffffffffff1673ffffffffffffffffffffffffffffffffffffffff16815260200190815260200160002060000160009054906101000a900473ffffffffffffffffffffffffffffffffffffffff1673ffffffffffffffffffffffffffffffffffffffff160361089c576040517f08c379a0000000000000000000000000000000000000000000000000000000008152600401610893906136ef565b60405180910390fd5b3373ffffffffffffffffffffffffffffffffffffffff166007600086815260200190815260200160002060010160009054906101000a900473ffffffffffffffffffffffffffffffffffffffff1673ffffffffffffffffffffffffffffffffffffffff1614610940576040517f08c379a000000000000000000000000000000000000000000000000000000000815260040161093790613781565b60405180910390fd5b60405180606001604052803373ffffffffffffffffffffffffffffffffffffffff1681526020016007600087815260200190815260200160002060000160009054906101000a900473ffffffffffffffffffffffffffffffffffffffff1673ffffffffffffffffffffffffffffffffffffffff16815260200184848080601f016020809104026020016040519081016040528093929190818152602001838380828437600081840152601f19601f820116905080830192505050505050508152506003600086815260200190815260200160002060003373ffffffffffffffffffffffffffffffffffffffff1673ffffffffffffffffffffffffffffffffffffffff16815260200190815260200160002060008201518160000160006101000a81548173ffffffffffffffffffffffffffffffffffffffff021916908373ffffffffffffffffffffffffffffffffffffffff16021790555060208201518160010160006101000a81548173ffffffffffffffffffffffffffffffffffffffff021916908373ffffffffffffffffffffffffffffffffffffffff1602179055506040820151816002019081610af4919061397c565b509050506007600085815260200190815260200160002060000160009054906101000a900473ffffffffffffffffffffffffffffffffffffffff1673ffffffffffffffffffffffffffffffffffffffff163373ffffffffffffffffffffffffffffffffffffffff167feb77b1d3ac597ebf952c38880452fc23ad8e2cf59f4c55b7a131febb27c565c58585604051610b8d929190613a8a565b60405180910390a350505050565b600160009054906101000a900473ffffffffffffffffffffffffffffffffffffffff1673ffffffffffffffffffffffffffffffffffffffff163373ffffffffffffffffffffffffffffffffffffffff1614610c2b576040517f08c379a0000000000000000000000000000000000000000000000000000000008152600401610c2290613b20565b60405180910390fd5b610c3482612765565b6001600460008373ffffffffffffffffffffffffffffffffffffffff1673ffffffffffffffffffffffffffffffffffffffff16815260200190815260200160002060006101000a81548160ff0219169083151502179055508073ffffffffffffffffffffffffffffffffffffffff167fde6d97dc8e363f2863226c6f890cefd62181582bf31055890a9a3c79d51c0d6c60405160405180910390a25050565b600460003373ffffffffffffffffffffffffffffffffffffffff1673ffffffffffffffffffffffffffffffffffffffff16815260200190815260200160002060009054906101000a900460ff1615610d60576040517f08c379a0000000000000000000000000000000000000000000000000000000008152600401610d5790613b8c565b60405180910390fd5b6000610d6a612c62565b90506040518061016001604052803373ffffffffffffffffffffffffffffffffffffffff168152602001600073ffffffffffffffffffffffffffffffffffffffff16815260200160011515815260200182815260200185858080601f016020809104026020016040519081016040528093929190818152602001838380828437600081840152601f19601f82011690508083019250505050505050815260200189898080601f016020809104026020016040519081016040528093929190818152602001838380828437600081840152601f19601f82011690508083019250505050505050815260200187878080601f016020809104026020016040519081016040528093929190818152602001838380828437600081840152601f19601f820116905080830192505050505050508152602001600081526020018381526020016000815260200160008152506007600083815260200190815260200160002060008201518160000160006101000a81548173ffffffffffffffffffffffffffffffffffffffff021916908373ffffffffffffffffffffffffffffffffffffffff16021790555060208201518160010160006101000a81548173ffffffffffffffffffffffffffffffffffffffff021916908373ffffffffffffffffffffffffffffffffffffffff16021790555060408201518160010160146101000a81548160ff021916908315150217905550606082015181600201556080820151816003019081610f97919061397c565b5060a0820151816004019081610fad919061397c565b5060c0820151816005019081610fc3919061397c565b5060e082015181600601556101008201518160070155610120820151816008015561014082015181600901559050506002819080600181540180825580915050600190039060005260206000200160009091909190915055803373ffffffffffffffffffffffffffffffffffffffff167fa2b0cdba65d9c8d77809214dbf10d9d7abfb8eb7ec7a21f30eee7d724e348fc360405160405180910390a35050505050505050565b82600073ffffffffffffffffffffffffffffffffffffffff166007600083815260200190815260200160002060010160009054906101000a900473ffffffffffffffffffffffffffffffffffffffff1673ffffffffffffffffffffffffffffffffffffffff160361110f576040517f08c379a0000000000000000000000000000000000000000000000000000000008152600401611106906135f1565b60405180910390fd5b3373ffffffffffffffffffffffffffffffffffffffff166007600083815260200190815260200160002060000160009054906101000a900473ffffffffffffffffffffffffffffffffffffffff1673ffffffffffffffffffffffffffffffffffffffff1614806111e057503373ffffffffffffffffffffffffffffffffffffffff166007600083815260200190815260200160002060010160009054906101000a900473ffffffffffffffffffffffffffffffffffffffff1673ffffffffffffffffffffffffffffffffffffffff16145b61121f576040517f08c379a000000000000000000000000000000000000000000000000000000000815260040161121690613683565b60405180910390fd5b3373ffffffffffffffffffffffffffffffffffffffff166003600083815260200190815260200160002060003373ffffffffffffffffffffffffffffffffffffffff1673ffffffffffffffffffffffffffffffffffffffff16815260200190815260200160002060000160009054906101000a900473ffffffffffffffffffffffffffffffffffffffff1673ffffffffffffffffffffffffffffffffffffffff1603611300576040517f08c379a00000000000000000000000000000000000000000000000000000000081526004016112f7906136ef565b60405180910390fd5b3373ffffffffffffffffffffffffffffffffffffffff166007600086815260200190815260200160002060000160009054906101000a900473ffffffffffffffffffffffffffffffffffffffff1673ffffffffffffffffffffffffffffffffffffffff16146113a4576040517f08c379a000000000000000000000000000000000000000000000000000000000815260040161139b90613781565b60405180910390fd5b60405180606001604052803373ffffffffffffffffffffffffffffffffffffffff1681526020016007600087815260200190815260200160002060010160009054906101000a900473ffffffffffffffffffffffffffffffffffffffff1673ffffffffffffffffffffffffffffffffffffffff16815260200184848080601f016020809104026020016040519081016040528093929190818152602001838380828437600081840152601f19601f820116905080830192505050505050508152506003600086815260200190815260200160002060003373ffffffffffffffffffffffffffffffffffffffff1673ffffffffffffffffffffffffffffffffffffffff16815260200190815260200160002060008201518160000160006101000a81548173ffffffffffffffffffffffffffffffffffffffff021916908373ffffffffffffffffffffffffffffffffffffffff16021790555060208201518160010160006101000a81548173ffffffffffffffffffffffffffffffffffffffff021916908373ffffffffffffffffffffffffffffffffffffffff1602179055506040820151816002019081611558919061397c565b509050506007600085815260200190815260200160002060010160009054906101000a900473ffffffffffffffffffffffffffffffffffffffff1673ffffffffffffffffffffffffffffffffffffffff163373ffffffffffffffffffffffffffffffffffffffff167feb77b1d3ac597ebf952c38880452fc23ad8e2cf59f4c55b7a131febb27c565c585856040516115f1929190613a8a565b60405180910390a350505050565b611607612d5d565b6007600083815260200190815260200160002060000160009054906101000a900473ffffffffffffffffffffffffffffffffffffffff1673ffffffffffffffffffffffffffffffffffffffff163373ffffffffffffffffffffffffffffffffffffffff1614806116d857506007600083815260200190815260200160002060010160009054906101000a900473ffffffffffffffffffffffffffffffffffffffff1673ffffffffffffffffffffffffffffffffffffffff163373ffffffffffffffffffffffffffffffffffffffff16145b611717576040517f08c379a000000000000000000000000000000000000000000000000000000000815260040161170e90613c1e565b60405180910390fd5b3373ffffffffffffffffffffffffffffffffffffffff166003600084815260200190815260200160002060003373ffffffffffffffffffffffffffffffffffffffff1673ffffffffffffffffffffffffffffffffffffffff16815260200190815260200160002060000160009054906101000a900473ffffffffffffffffffffffffffffffffffffffff1673ffffffffffffffffffffffffffffffffffffffff16146117f8576040517f08c379a00000000000000000000000000000000000000000000000000000000081526004016117ef90613c8a565b60405180910390fd5b6003600083815260200190815260200160002060003373ffffffffffffffffffffffffffffffffffffffff1673ffffffffffffffffffffffffffffffffffffffff1681526020019081526020016000206040518060600160405290816000820160009054906101000a900473ffffffffffffffffffffffffffffffffffffffff1673ffffffffffffffffffffffffffffffffffffffff1673ffffffffffffffffffffffffffffffffffffffff1681526020016001820160009054906101000a900473ffffffffffffffffffffffffffffffffffffffff1673ffffffffffffffffffffffffffffffffffffffff1673ffffffffffffffffffffffffffffffffffffffff16815260200160028201805461190f90613563565b80601f016020809104026020016040519081016040528092919081815260200182805461193b90613563565b80156119885780601f1061195d57610100808354040283529160200191611988565b820191906000526020600020905b81548152906001019060200180831161196b57829003601f168201915b5050505050815250509050919050565b80600115156007600083815260200190815260200160002060010160149054906101000a900460ff16151514611a03576040517f08c379a00000000000000000000000000000000000000000000000000000000081526004016119fa90613cf6565b60405180910390fd5b6007600082815260200190815260200160002060000160009054906101000a900473ffffffffffffffffffffffffffffffffffffffff1673ffffffffffffffffffffffffffffffffffffffff163373ffffffffffffffffffffffffffffffffffffffff1603611aa7576040517f08c379a0000000000000000000000000000000000000000000000000000000008152600401611a9e90613d88565b60405180910390fd5b600460003373ffffffffffffffffffffffffffffffffffffffff1673ffffffffffffffffffffffffffffffffffffffff16815260200190815260200160002060009054906101000a900460ff1615611b34576040517f08c379a0000000000000000000000000000000000000000000000000000000008152600401611b2b90613df4565b60405180910390fd5b60096000838152602001908152602001600020339080600181540180825580915050600190039060005260206000200160009091909190916101000a81548173ffffffffffffffffffffffffffffffffffffffff021916908373ffffffffffffffffffffffffffffffffffffffff160217905550813373ffffffffffffffffffffffffffffffffffffffff167fcf8d7a3a5e62390deaf34488f1733f59a2fabe783a8044b27d5ed3d961b0c5c860405160405180910390a35050565b80600073ffffffffffffffffffffffffffffffffffffffff166007600083815260200190815260200160002060010160009054906101000a900473ffffffffffffffffffffffffffffffffffffffff1673ffffffffffffffffffffffffffffffffffffffff1614611c96576040517f08c379a0000000000000000000000000000000000000000000000000000000008152600401611c8d90613e60565b60405180910390fd5b600073ffffffffffffffffffffffffffffffffffffffff166007600083815260200190815260200160002060000160009054906101000a900473ffffffffffffffffffffffffffffffffffffffff1673ffffffffffffffffffffffffffffffffffffffff1603611d3b576040517f08c379a0000000000000000000000000000000000000000000000000000000008152600401611d3290613ef2565b60405180910390fd5b3373ffffffffffffffffffffffffffffffffffffffff166007600083815260200190815260200160002060000160009054906101000a900473ffffffffffffffffffffffffffffffffffffffff1673ffffffffffffffffffffffffffffffffffffffff1614611ddf576040517f08c379a0000000000000000000000000000000000000000000000000000000008152600401611dd690613f84565b60405180910390fd5b60076000838152602001908152602001600020600080820160006101000a81549073ffffffffffffffffffffffffffffffffffffffff02191690556001820160006101000a81549073ffffffffffffffffffffffffffffffffffffffff02191690556001820160146101000a81549060ff02191690556002820160009055600382016000611e6d9190612daa565b600482016000611e7d9190612daa565b600582016000611e8d9190612daa565b60068201600090556007820160009055600882016000905560098201600090555050817f9a2ce88653313dfc162625846c84051361afa6d2ed27a79e75532fcc70eec7e460405160405180910390a25050565b600460003373ffffffffffffffffffffffffffffffffffffffff1673ffffffffffffffffffffffffffffffffffffffff16815260200190815260200160002060009054906101000a900460ff1615611f6d576040517f08c379a0000000000000000000000000000000000000000000000000000000008152600401611f6490613b8c565b60405180910390fd5b600115156007600085815260200190815260200160002060010160149054906101000a900460ff16151514611fd7576040517f08c379a0000000000000000000000000000000000000000000000000000000008152600401611fce90613cf6565b60405180910390fd5b6007600084815260200190815260200160002060000160009054906101000a900473ffffffffffffffffffffffffffffffffffffffff1673ffffffffffffffffffffffffffffffffffffffff163373ffffffffffffffffffffffffffffffffffffffff161461207b576040517f08c379a000000000000000000000000000000000000000000000000000000000815260040161207290614016565b60405180910390fd5b816007600085815260200190815260200160002060010160006101000a81548173ffffffffffffffffffffffffffffffffffffffff021916908373ffffffffffffffffffffffffffffffffffffffff16021790555060006007600085815260200190815260200160002060010160146101000a81548160ff02191690831515021790555042600760008581526020019081526020016000206008018190555062015180816121299190614065565b4261213491906140a7565b600760008581526020019081526020016000206006018190555060076000848152602001908152602001600020600560008473ffffffffffffffffffffffffffffffffffffffff1673ffffffffffffffffffffffffffffffffffffffff1681526020019081526020016000206002016000820160009054906101000a900473ffffffffffffffffffffffffffffffffffffffff168160000160006101000a81548173ffffffffffffffffffffffffffffffffffffffff021916908373ffffffffffffffffffffffffffffffffffffffff1602179055506001820160009054906101000a900473ffffffffffffffffffffffffffffffffffffffff168160010160006101000a81548173ffffffffffffffffffffffffffffffffffffffff021916908373ffffffffffffffffffffffffffffffffffffffff1602179055506001820160149054906101000a900460ff168160010160146101000a81548160ff02191690831515021790555060028201548160020155600382018160030190816122bc91906140f1565b50600482018160040190816122d191906140f1565b50600582018160050190816122e691906140f1565b5060068201548160060155600782015481600701556008820154816008015560098201548160090155905050823373ffffffffffffffffffffffffffffffffffffffff167fc0b7ebdc4004125b7bdabbeb9d8626aa06ac958459f120010052ea08ae3da28e60405160405180910390a3505050565b6060600960008381526020019081526020016000208054806020026020016040519081016040528092919081815260200182805480156123f057602002820191906000526020600020905b8160009054906101000a900473ffffffffffffffffffffffffffffffffffffffff1673ffffffffffffffffffffffffffffffffffffffff16815260200190600101908083116123a6575b50505050509050919050565b803373ffffffffffffffffffffffffffffffffffffffff166007600083815260200190815260200160002060000160009054906101000a900473ffffffffffffffffffffffffffffffffffffffff1673ffffffffffffffffffffffffffffffffffffffff1614806124ce57503373ffffffffffffffffffffffffffffffffffffffff166007600083815260200190815260200160002060010160009054906101000a900473ffffffffffffffffffffffffffffffffffffffff1673ffffffffffffffffffffffffffffffffffffffff16145b61250d576040517f08c379a00000000000000000000000000000000000000000000000000000000081526004016125049061424b565b60405180910390fd5b600015156008600083815260200190815260200160002060003373ffffffffffffffffffffffffffffffffffffffff1673ffffffffffffffffffffffffffffffffffffffff16815260200190815260200160002060009054906101000a900460ff161515146125b1576040517f08c379a00000000000000000000000000000000000000000000000000000000081526004016125a8906142dd565b60405180910390fd5b600260076000838152602001908152602001600020600901541061260a576040517f08c379a00000000000000000000000000000000000000000000000000000000081526004016126019061436f565b60405180910390fd5b60016008600084815260200190815260200160002060003373ffffffffffffffffffffffffffffffffffffffff1673ffffffffffffffffffffffffffffffffffffffff16815260200190815260200160002060006101000a81548160ff02191690831515021790555060076000838152602001908152602001600020600901600081546126969061438f565b9190508190555060026007600084815260200190815260200160002060090154036126c5576126c482612765565b5b813373ffffffffffffffffffffffffffffffffffffffff167f85c09215614dcbd9cc102583e79eb60dd0e67910227dbbf1aceb1d885eb0ff7160405160405180910390a35050565b6060600280548060200260200160405190810160405280929190818152602001828054801561275b57602002820191906000526020600020905b815481526020019060010190808311612747575b5050505050905090565b80600073ffffffffffffffffffffffffffffffffffffffff166007600083815260200190815260200160002060010160009054906101000a900473ffffffffffffffffffffffffffffffffffffffff1673ffffffffffffffffffffffffffffffffffffffff160361280b576040517f08c379a0000000000000000000000000000000000000000000000000000000008152600401612802906135f1565b60405180910390fd5b600160009054906101000a900473ffffffffffffffffffffffffffffffffffffffff1673ffffffffffffffffffffffffffffffffffffffff163373ffffffffffffffffffffffffffffffffffffffff16146129ca573373ffffffffffffffffffffffffffffffffffffffff166007600083815260200190815260200160002060000160009054906101000a900473ffffffffffffffffffffffffffffffffffffffff1673ffffffffffffffffffffffffffffffffffffffff16148061293157503373ffffffffffffffffffffffffffffffffffffffff166007600083815260200190815260200160002060010160009054906101000a900473ffffffffffffffffffffffffffffffffffffffff1673ffffffffffffffffffffffffffffffffffffffff16145b612970576040517f08c379a000000000000000000000000000000000000000000000000000000000815260040161296790614423565b60405180910390fd5b60026007600083815260200190815260200160002060090154146129c9576040517f08c379a00000000000000000000000000000000000000000000000000000000081526004016129c0906144b5565b60405180910390fd5b5b6008600083815260200190815260200160002060006007600085815260200190815260200160002060010160009054906101000a900473ffffffffffffffffffffffffffffffffffffffff1673ffffffffffffffffffffffffffffffffffffffff1673ffffffffffffffffffffffffffffffffffffffff16815260200190815260200160002060006101000a81549060ff02191690556008600083815260200190815260200160002060006007600085815260200190815260200160002060000160009054906101000a900473ffffffffffffffffffffffffffffffffffffffff1673ffffffffffffffffffffffffffffffffffffffff1673ffffffffffffffffffffffffffffffffffffffff16815260200190815260200160002060006101000a81549060ff021916905560006007600084815260200190815260200160002060010160006101000a81548173ffffffffffffffffffffffffffffffffffffffff021916908373ffffffffffffffffffffffffffffffffffffffff16021790555060016007600084815260200190815260200160002060010160146101000a81548160ff02191690831515021790555060006007600084815260200190815260200160002060090181905550816007600084815260200190815260200160002060010160009054906101000a900473ffffffffffffffffffffffffffffffffffffffff1673ffffffffffffffffffffffffffffffffffffffff166007600085815260200190815260200160002060000160009054906101000a900473ffffffffffffffffffffffffffffffffffffffff1673ffffffffffffffffffffffffffffffffffffffff167ff21ec23321d5561f828a9e415cca061ddbb8098d4853d177c82d75a97d8d404960405160405180910390a45050565b6000612c6e6000612cae565b42612c796000612cc4565b612c8391906140a7565b604051602001612c9391906144f6565b60405160208183030381529060405280519060200120905090565b6001816000016000828254019250508190555050565b600081600001549050919050565b604051806101600160405280600073ffffffffffffffffffffffffffffffffffffffff168152602001600073ffffffffffffffffffffffffffffffffffffffff16815260200160001515815260200160008019168152602001606081526020016060815260200160608152602001600081526020016000815260200160008152602001600081525090565b6040518060600160405280600073ffffffffffffffffffffffffffffffffffffffff168152602001600073ffffffffffffffffffffffffffffffffffffffff168152602001606081525090565b508054612db690613563565b6000825580601f10612dc85750612de7565b601f016020900490600052602060002090810190612de69190612dea565b5b50565b5b80821115612e03576000816000905550600101612deb565b5090565b600080fd5b600080fd5b6000819050919050565b612e2481612e11565b8114612e2f57600080fd5b50565b600081359050612e4181612e1b565b92915050565b600060208284031215612e5d57612e5c612e07565b5b6000612e6b84828501612e32565b91505092915050565b600073ffffffffffffffffffffffffffffffffffffffff82169050919050565b6000612e9f82612e74565b9050919050565b612eaf81612e94565b82525050565b60008115159050919050565b612eca81612eb5565b82525050565b612ed981612e11565b82525050565b600081519050919050565b600082825260208201905092915050565b60005b83811015612f19578082015181840152602081019050612efe565b60008484015250505050565b6000601f19601f8301169050919050565b6000612f4182612edf565b612f4b8185612eea565b9350612f5b818560208601612efb565b612f6481612f25565b840191505092915050565b6000819050919050565b612f8281612f6f565b82525050565b600061016083016000830151612fa16000860182612ea6565b506020830151612fb46020860182612ea6565b506040830151612fc76040860182612ec1565b506060830151612fda6060860182612ed0565b5060808301518482036080860152612ff28282612f36565b91505060a083015184820360a086015261300c8282612f36565b91505060c083015184820360c08601526130268282612f36565b91505060e083015161303b60e0860182612f79565b50610100830151613050610100860182612f79565b50610120830151613065610120860182612f79565b5061014083015161307a610140860182612f79565b508091505092915050565b6000602082019050818103600083015261309f8184612f88565b905092915050565b600080fd5b600080fd5b600080fd5b60008083601f8401126130cc576130cb6130a7565b5b8235905067ffffffffffffffff8111156130e9576130e86130ac565b5b602083019150836001820283011115613105576131046130b1565b5b9250929050565b60008060006040848603121561312557613124612e07565b5b600061313386828701612e32565b935050602084013567ffffffffffffffff81111561315457613153612e0c565b5b613160868287016130b6565b92509250509250925092565b61317581612e94565b811461318057600080fd5b50565b6000813590506131928161316c565b92915050565b600080604083850312156131af576131ae612e07565b5b60006131bd85828601612e32565b92505060206131ce85828601613183565b9150509250929050565b6131e181612f6f565b81146131ec57600080fd5b50565b6000813590506131fe816131d8565b92915050565b60008060008060008060006080888a03121561322357613222612e07565b5b600088013567ffffffffffffffff81111561324157613240612e0c565b5b61324d8a828b016130b6565b9750975050602088013567ffffffffffffffff8111156132705761326f612e0c565b5b61327c8a828b016130b6565b9550955050604088013567ffffffffffffffff81111561329f5761329e612e0c565b5b6132ab8a828b016130b6565b935093505060606132be8a828b016131ef565b91505092959891949750929550565b60006060830160008301516132e56000860182612ea6565b5060208301516132f86020860182612ea6565b50604083015184820360408601526133108282612f36565b9150508091505092915050565b6000602082019050818103600083015261333781846132cd565b905092915050565b60008060006060848603121561335857613357612e07565b5b600061336686828701612e32565b935050602061337786828701613183565b9250506040613388868287016131ef565b9150509250925092565b600081519050919050565b600082825260208201905092915050565b6000819050602082019050919050565b60006133ca8383612ea6565b60208301905092915050565b6000602082019050919050565b60006133ee82613392565b6133f8818561339d565b9350613403836133ae565b8060005b8381101561343457815161341b88826133be565b9750613426836133d6565b925050600181019050613407565b5085935050505092915050565b6000602082019050818103600083015261345b81846133e3565b905092915050565b600081519050919050565b600082825260208201905092915050565b6000819050602082019050919050565b600061349b8383612ed0565b60208301905092915050565b6000602082019050919050565b60006134bf82613463565b6134c9818561346e565b93506134d48361347f565b8060005b838110156135055781516134ec888261348f565b97506134f7836134a7565b9250506001810190506134d8565b5085935050505092915050565b6000602082019050818103600083015261352c81846134b4565b905092915050565b7f4e487b7100000000000000000000000000000000000000000000000000000000600052602260045260246000fd5b6000600282049050600182168061357b57607f821691505b60208210810361358e5761358d613534565b5b50919050565b600082825260208201905092915050565b7f546869732070726f706572747920686173206e6f742072656e74656400000000600082015250565b60006135db601c83613594565b91506135e6826135a5565b602082019050919050565b6000602082019050818103600083015261360a816135ce565b9050919050565b7f596f752063616e27742063726561746520636f6d706c61696e7420666f72207460008201527f6869732070726f70657274790000000000000000000000000000000000000000602082015250565b600061366d602c83613594565b915061367882613611565b604082019050919050565b6000602082019050818103600083015261369c81613660565b9050919050565b7f596f7520616c72656164792063726561746564206120636f6d706c61696e7400600082015250565b60006136d9601f83613594565b91506136e4826136a3565b602082019050919050565b60006020820190508181036000830152613708816136cc565b9050919050565b7f596f752063616e27742063726561746520636f6d706c61696e7420666f72207960008201527f6f757273656c6600000000000000000000000000000000000000000000000000602082015250565b600061376b602783613594565b91506137768261370f565b604082019050919050565b6000602082019050818103600083015261379a8161375e565b9050919050565b7f4e487b7100000000000000000000000000000000000000000000000000000000600052604160045260246000fd5b60008190508160005260206000209050919050565b60006020601f8301049050919050565b600082821b905092915050565b6000600883026138327fffffffffffffffffffffffffffffffffffffffffffffffffffffffffffffffff826137f5565b61383c86836137f5565b95508019841693508086168417925050509392505050565b6000819050919050565b600061387961387461386f84612f6f565b613854565b612f6f565b9050919050565b6000819050919050565b6138938361385e565b6138a761389f82613880565b848454613802565b825550505050565b600090565b6138bc6138af565b6138c781848461388a565b505050565b5b818110156138eb576138e06000826138b4565b6001810190506138cd565b5050565b601f82111561393057613901816137d0565b61390a846137e5565b81016020851015613919578190505b61392d613925856137e5565b8301826138cc565b50505b505050565b600082821c905092915050565b600061395360001984600802613935565b1980831691505092915050565b600061396c8383613942565b9150826002028217905092915050565b61398582612edf565b67ffffffffffffffff81111561399e5761399d6137a1565b5b6139a88254613563565b6139b38282856138ef565b600060209050601f8311600181146139e657600084156139d4578287015190505b6139de8582613960565b865550613a46565b601f1984166139f4866137d0565b60005b82811015613a1c578489015182556001820191506020850194506020810190506139f7565b86831015613a395784890151613a35601f891682613942565b8355505b6001600288020188555050505b505050505050565b82818337600083830152505050565b6000613a698385613594565b9350613a76838584613a4e565b613a7f83612f25565b840190509392505050565b60006020820190508181036000830152613aa5818486613a5d565b90509392505050565b7f4f6e6c7920636f6e7472616374206f776e65722063616e20657865637574652060008201527f7468697320636f6d6d616e640000000000000000000000000000000000000000602082015250565b6000613b0a602c83613594565b9150613b1582613aae565b604082019050919050565b60006020820190508181036000830152613b3981613afd565b9050919050565b7f54686973206f776e65722063616e27742072656e742070726f70657274790000600082015250565b6000613b76601e83613594565b9150613b8182613b40565b602082019050919050565b60006020820190508181036000830152613ba581613b69565b9050919050565b7f596f752063616e27742067657420636f6d706c61696e7473206f66207468697360008201527f2070726f70657274790000000000000000000000000000000000000000000000602082015250565b6000613c08602983613594565b9150613c1382613bac565b604082019050919050565b60006020820190508181036000830152613c3781613bfb565b9050919050565b7f596f75206469646e2774206372656174656420636f6d706c61696e7400000000600082015250565b6000613c74601c83613594565b9150613c7f82613c3e565b602082019050919050565b60006020820190508181036000830152613ca381613c67565b9050919050565b7f546869732070726f706572747920616c72656164792072656e74656400000000600082015250565b6000613ce0601c83613594565b9150613ceb82613caa565b602082019050919050565b60006020820190508181036000830152613d0f81613cd3565b9050919050565b7f596f752063616e6e6f74206869726520796f7572206f776e2070726f7065727460008201527f7900000000000000000000000000000000000000000000000000000000000000602082015250565b6000613d72602183613594565b9150613d7d82613d16565b604082019050919050565b60006020820190508181036000830152613da181613d65565b9050919050565b7f5468697320757365722063616e27742072656e742070726f7065727479000000600082015250565b6000613dde601d83613594565b9150613de982613da8565b602082019050919050565b60006020820190508181036000830152613e0d81613dd1565b9050919050565b7f546869732070726f7065727479206861732072656e7465640000000000000000600082015250565b6000613e4a601883613594565b9150613e5582613e14565b602082019050919050565b60006020820190508181036000830152613e7981613e3d565b9050919050565b7f546865726520617265206e6f2070726f7065727479207769746820676976656e60008201527f2069640000000000000000000000000000000000000000000000000000000000602082015250565b6000613edc602383613594565b9150613ee782613e80565b604082019050919050565b60006020820190508181036000830152613f0b81613ecf565b9050919050565b7f596f7520617265206e6f7420746865206f776e6572206f66207468697320707260008201527f6f70657274790000000000000000000000000000000000000000000000000000602082015250565b6000613f6e602683613594565b9150613f7982613f12565b604082019050919050565b60006020820190508181036000830152613f9d81613f61565b9050919050565b7f4f6e6c79206f776e65722063616e2065786563757465207468697320636f6d6d60008201527f616e640000000000000000000000000000000000000000000000000000000000602082015250565b6000614000602383613594565b915061400b82613fa4565b604082019050919050565b6000602082019050818103600083015261402f81613ff3565b9050919050565b7f4e487b7100000000000000000000000000000000000000000000000000000000600052601160045260246000fd5b600061407082612f6f565b915061407b83612f6f565b925082820261408981612f6f565b915082820484148315176140a05761409f614036565b5b5092915050565b60006140b282612f6f565b91506140bd83612f6f565b92508282019050808211156140d5576140d4614036565b5b92915050565b6000815490506140ea81613563565b9050919050565b8181036140ff5750506141d7565b614108826140db565b67ffffffffffffffff811115614121576141206137a1565b5b61412b8254613563565b6141368282856138ef565b6000601f8311600181146141655760008415614153578287015490505b61415d8582613960565b8655506141d0565b601f198416614173876137d0565b965061417e866137d0565b60005b828110156141a657848901548255600182019150600185019450602081019050614181565b868310156141c357848901546141bf601f891682613942565b8355505b6001600288020188555050505b5050505050505b565b7f596f752063616e27742063726561746520627265616b2072657175657374206660008201527f6f7220746869732070726f706572747900000000000000000000000000000000602082015250565b6000614235603083613594565b9150614240826141d9565b604082019050919050565b6000602082019050818103600083015261426481614228565b9050919050565b7f54686973207573657220616c7265616479207369676e6564207468697320616760008201527f7265656d656e7400000000000000000000000000000000000000000000000000602082015250565b60006142c7602783613594565b91506142d28261426b565b604082019050919050565b600060208201905081810360008301526142f6816142ba565b9050919050565b7f4e6f206d6f72652075736572732063616e207369676e2074686973206167726560008201527f656d656e7420616e796d6f726500000000000000000000000000000000000000602082015250565b6000614359602d83613594565b9150614364826142fd565b604082019050919050565b600060208201905081810360008301526143888161434c565b9050919050565b600061439a82612f6f565b91507fffffffffffffffffffffffffffffffffffffffffffffffffffffffffffffffff82036143cc576143cb614036565b5b600182019050919050565b7f596f752063616e277420627265616b20746869732061677265656d656e740000600082015250565b600061440d601e83613594565b9150614418826143d7565b602082019050919050565b6000602082019050818103600083015261443c81614400565b9050919050565b7f416c6c207573657273206861766520746f207369676e2072657175657374207460008201527f6f20627265616b2061677265656d656e74000000000000000000000000000000602082015250565b600061449f603183613594565b91506144aa82614443565b604082019050919050565b600060208201905081810360008301526144ce81614492565b9050919050565b6000819050919050565b6144f06144eb82612f6f565b6144d5565b82525050565b600061450282846144df565b6020820191508190509291505056fea264697066735822122093d2936cccfee4ef8b931432c1aa13080d9843c15def8ff56036fdcef23ed82064736f6c63430008160033",
  "linkReferences": {},
  "deployedLinkReferences": {}
}